#include <monad/chain/ethereum_mainnet.hpp>
#include <monad/core/account.hpp>
#include <monad/core/byte_string.hpp>
#include <monad/core/bytes.hpp>
#include <monad/core/hex_literal.hpp>
#include <monad/core/keccak.hpp>
#include <monad/core/receipt.hpp>
#include <monad/core/rlp/block_rlp.hpp>
#include <monad/core/rlp/transaction_rlp.hpp>
#include <monad/core/transaction.hpp>
#include <monad/db/trie_db.hpp>
#include <monad/db/util.hpp>
#include <monad/execution/block_hash_buffer.hpp>
#include <monad/execution/code_analysis.hpp>
#include <monad/execution/execute_block.hpp>
#include <monad/execution/execute_transaction.hpp>
#include <monad/execution/trace/call_tracer.hpp>
#include <monad/execution/trace/rlp/call_frame_rlp.hpp>
#include <monad/fiber/priority_pool.hpp>
#include <monad/mpt/ondisk_db_config.hpp>
#include <monad/state2/block_state.hpp>
#include <monad/state2/state_deltas.hpp>

#include <evmc/evmc.hpp>
#include <evmc/hex.hpp>

#include <ethash/keccak.hpp>

#include <intx/intx.hpp>

#include <nlohmann/json_fwd.hpp>

#include <gmock/gmock.h>
#include <gtest/gtest.h>

#include <test_resource_data.h>

#include <bit>
#include <filesystem>
#include <fstream>
#include <memory>
#include <optional>
#include <string>
#include <utility>
#include <vector>

using namespace monad;
using namespace monad::test;

namespace
{
    // clang-format off
    auto const STRESS_TEST_CODE =
        evmc::from_hex("0x5b61c3506080511015603f576000600061c3506000600173aaaf5374fce5edbc8e2a8697c15331677e6ebf0b610640f16000556001608051016080526000565b60805160015500")
            .value();
    // clang-format on
    auto const STRESS_TEST_CODE_HASH = to_bytes(keccak256(STRESS_TEST_CODE));
    auto const STRESS_TEST_CODE_ANALYSIS =
        std::make_shared<CodeAnalysis>(analyze(STRESS_TEST_CODE));

    constexpr auto key1 =
        0x00000000000000000000000000000000000000000000000000000000cafebabe_bytes32;
    constexpr auto key2 =
        0x1c1c1c1c1c1c1c1c1c1c1c1c1c1c1c1c1c1c1c1c1c1c1c1c1c1c1c1c1c1c1c1c_bytes32;
    constexpr auto value1 =
        0x0000000000000013370000000000000000000000000000000000000000000003_bytes32;
    constexpr auto value2 =
        0x0000000000000000000000000000000000000000000000000000000000000007_bytes32;

    struct InMemoryTrieDbFixture : public ::testing::Test
    {
        static constexpr bool on_disk = false;

        InMemoryMachine machine;
        mpt::Db db{machine};
    };

    struct OnDiskTrieDbFixture : public ::testing::Test
    {
        static constexpr bool on_disk = true;

        OnDiskMachine machine;
        mpt::Db db{machine, mpt::OnDiskDbConfig{}};
    };
}

template <typename TDB>
struct DBTest : public TDB
{
};

using DBTypes = ::testing::Types<InMemoryTrieDbFixture, OnDiskTrieDbFixture>;
TYPED_TEST_SUITE(DBTest, DBTypes);

TEST(DBTest, read_only)
{
    auto const name =
        std::filesystem::temp_directory_path() /
        (::testing::UnitTest::GetInstance()->current_test_info()->name() +
         std::to_string(rand()));
    {
        OnDiskMachine machine;
        mpt::Db db{machine, mpt::OnDiskDbConfig{.dbname_paths = {name}}};
        TrieDb rw(db);

        Account const acct1{.nonce = 1};
        rw.commit(
            StateDeltas{
                {ADDR_A,
                 StateDelta{.account = {std::nullopt, acct1}, .storage = {}}}},
            Code{});
        Account const acct2{.nonce = 2};
        rw.increment_block_number();
        rw.commit(
            StateDeltas{
                {ADDR_A, StateDelta{.account = {acct1, acct2}, .storage = {}}}},
            Code{});

        mpt::Db db2(mpt::ReadOnlyOnDiskDbConfig{.dbname_paths = {name}});
        TrieDb ro{db2};
        EXPECT_EQ(ro.read_account(ADDR_A), Account{.nonce = 2});
        ro.set_block_number(0);
        EXPECT_EQ(ro.read_account(ADDR_A), Account{.nonce = 1});

        Account const acct3{.nonce = 3};
        rw.increment_block_number();
        rw.commit(
            StateDeltas{
                {ADDR_A, StateDelta{.account = {acct2, acct3}, .storage = {}}}},
            Code{});

        // Read block 0
        EXPECT_EQ(ro.read_account(ADDR_A), Account{.nonce = 1});
        // Go forward to block 2
        ro.set_block_number(2);
        EXPECT_EQ(ro.read_account(ADDR_A), Account{.nonce = 3});
        // Go backward to block 1
        ro.set_block_number(1);
        EXPECT_EQ(ro.read_account(ADDR_A), Account{.nonce = 2});
        // Setting the same block number is no-op.
        ro.set_block_number(1);
        EXPECT_EQ(ro.read_account(ADDR_A), Account{.nonce = 2});
        // Go to a random block
        ro.set_block_number(1337);
        EXPECT_EQ(ro.read_account(ADDR_A), std::nullopt);
    }
    std::filesystem::remove(name);
}

TYPED_TEST(DBTest, read_storage)
{
    Account acct{.nonce = 1};
    TrieDb tdb{this->db};
    tdb.commit(
        StateDeltas{
            {ADDR_A,
             StateDelta{
                 .account = {std::nullopt, acct},
                 .storage = {{key1, {bytes32_t{}, value1}}}}}},
        Code{});

    // Existing storage
    EXPECT_EQ(tdb.read_storage(ADDR_A, Incarnation{0, 0}, key1), value1);
    EXPECT_EQ(tdb.read_storage_and_slot(ADDR_A, key1).first, key1);

    // Non-existing key
    EXPECT_EQ(tdb.read_storage(ADDR_A, Incarnation{0, 0}, key2), bytes32_t{});
    EXPECT_EQ(tdb.read_storage_and_slot(ADDR_A, key2).first, bytes32_t{});

    // Non-existing account
    EXPECT_FALSE(tdb.read_account(ADDR_B).has_value());
    EXPECT_EQ(tdb.read_storage(ADDR_B, Incarnation{0, 0}, key1), bytes32_t{});
    EXPECT_EQ(tdb.read_storage_and_slot(ADDR_B, key1).first, bytes32_t{});
}

TYPED_TEST(DBTest, read_code)
{
    Account acct_a{.balance = 1, .code_hash = A_CODE_HASH, .nonce = 1};
    TrieDb tdb{this->db};
    tdb.commit(
        StateDeltas{{ADDR_A, StateDelta{.account = {std::nullopt, acct_a}}}},
        Code{{A_CODE_HASH, A_CODE_ANALYSIS}});

    EXPECT_EQ(tdb.read_code(A_CODE_HASH)->executable_code, A_CODE);

    Account acct_b{.balance = 0, .code_hash = B_CODE_HASH, .nonce = 1};
    tdb.commit(
        StateDeltas{{ADDR_B, StateDelta{.account = {std::nullopt, acct_b}}}},
        Code{{B_CODE_HASH, B_CODE_ANALYSIS}});

    EXPECT_EQ(tdb.read_code(B_CODE_HASH)->executable_code, B_CODE);
}

TYPED_TEST(DBTest, ModifyStorageOfAccount)
{
    Account acct{.balance = 1'000'000, .code_hash = {}, .nonce = 1337};
    TrieDb tdb{this->db};
    tdb.commit(
        StateDeltas{
            {ADDR_A,
             StateDelta{
                 .account = {std::nullopt, acct},
                 .storage =
                     {{key1, {bytes32_t{}, value1}},
                      {key2, {bytes32_t{}, value2}}}}}},
        Code{});

    acct = tdb.read_account(ADDR_A).value();
    tdb.commit(
        StateDeltas{
            {ADDR_A,
             StateDelta{
                 .account = {acct, acct},
                 .storage = {{key2, {value2, value1}}}}}},
        Code{});

    EXPECT_EQ(
        tdb.state_root(),
        0x6303ffa4281cd596bc9fbfc21c28c1721ee64ec8e0f5753209eb8a13a739dae8_bytes32);
}

TYPED_TEST(DBTest, touch_without_modify_regression)
{
    TrieDb tdb{this->db};
    tdb.commit(
        StateDeltas{
            {ADDR_A, StateDelta{.account = {std::nullopt, std::nullopt}}}},
        Code{});

    EXPECT_EQ(tdb.read_account(ADDR_A), std::nullopt);
    EXPECT_EQ(tdb.state_root(), NULL_ROOT);
}

TYPED_TEST(DBTest, delete_account_modify_storage_regression)
{
    Account acct{.balance = 1'000'000, .code_hash = {}, .nonce = 1337};
    TrieDb tdb{this->db};
    tdb.commit(
        StateDeltas{
            {ADDR_A,
             StateDelta{
                 .account = {std::nullopt, acct},
                 .storage =
                     {{key1, {bytes32_t{}, value1}},
                      {key2, {bytes32_t{}, value2}}}}}},
        Code{});

    tdb.commit(
        StateDeltas{
            {ADDR_A,
             StateDelta{
                 .account = {acct, std::nullopt},
                 .storage =
                     {{key1, {value1, value2}}, {key2, {value2, value1}}}}}},
        Code{});

    EXPECT_EQ(tdb.read_account(ADDR_A), std::nullopt);
    EXPECT_EQ(tdb.read_storage(ADDR_A, Incarnation{0, 0}, key1), bytes32_t{});
    EXPECT_EQ(tdb.state_root(), NULL_ROOT);
}

TYPED_TEST(DBTest, storage_deletion)
{
    Account acct{.balance = 1'000'000, .code_hash = {}, .nonce = 1337};

    TrieDb tdb{this->db};
    tdb.commit(
        StateDeltas{
            {ADDR_A,
             StateDelta{
                 .account = {std::nullopt, acct},
                 .storage =
                     {{key1, {bytes32_t{}, value1}},
                      {key2, {bytes32_t{}, value2}}}}}},
        Code{});

    acct = tdb.read_account(ADDR_A).value();
    tdb.commit(
        StateDeltas{
            {ADDR_A,
             StateDelta{
                 .account = {acct, acct},
                 .storage = {{key1, {value1, bytes32_t{}}}}}}},
        Code{});

    EXPECT_EQ(
        tdb.state_root(),
        0x1f54a52a44ffa5b8298f7ed596dea62455816e784dce02d79ea583f3a4146598_bytes32);
}

TYPED_TEST(DBTest, commit_receipts)
{
    TrieDb tdb{this->db};
    // empty receipts
    tdb.commit(StateDeltas{}, Code{}, {});
    EXPECT_EQ(tdb.receipts_root(), NULL_ROOT);

    std::vector<Receipt> receipts;
    receipts.emplace_back(Receipt{
        .status = 1, .gas_used = 21'000, .type = TransactionType::legacy});
    receipts.emplace_back(Receipt{
        .status = 1, .gas_used = 42'000, .type = TransactionType::legacy});

    // receipt with log
    Receipt r{.status = 1, .gas_used = 65'092, .type = TransactionType::legacy};
    r.add_log(Receipt::Log{
        .data = from_hex("0x000000000000000000000000000000000000000000000000000"
                         "000000000000000000000000000000000000043b2126e7a22e0c2"
                         "88dfb469e3de4d2c097f3ca000000000000000000000000000000"
                         "0000000000000000001195387bce41fd499000000000000000000"
                         "0000000000000000000000000000000000000000000000"),
        .topics =
            {0xf341246adaac6f497bc2a656f546ab9e182111d630394f0c57c710a59a2cb567_bytes32},
        .address = 0x8d12a197cb00d4747a1fe03395095ce2a5cc6819_address});
    receipts.push_back(std::move(r));

    tdb.commit(StateDeltas{}, Code{}, receipts);
    EXPECT_EQ(
        tdb.receipts_root(),
        0x7ea023138ee7d80db04eeec9cf436dc35806b00cc5fe8e5f611fb7cf1b35b177_bytes32);

    // A new receipt trie with eip1559 transaction type
    receipts.clear();
    receipts.emplace_back(Receipt{
        .status = 1, .gas_used = 34865, .type = TransactionType::eip1559});
    receipts.emplace_back(Receipt{
        .status = 1, .gas_used = 77969, .type = TransactionType::eip1559});
    tdb.commit(StateDeltas{}, Code{}, receipts);
    EXPECT_EQ(
        tdb.receipts_root(),
        0x61f9b4707b28771a63c1ac6e220b2aa4e441dd74985be385eaf3cd7021c551e9_bytes32);
}

TYPED_TEST(DBTest, to_json)
{
    std::filesystem::path dbname{};
    if (this->on_disk) {
        dbname = {
            MONAD_ASYNC_NAMESPACE::working_temporary_directory() /
            "monad_test_db_to_json"};
    }
    auto db = [&] {
        if (this->on_disk) {
            return mpt::Db{
                this->machine, mpt::OnDiskDbConfig{.dbname_paths = {dbname}}};
        }
        return mpt::Db{this->machine};
    }();
    TrieDb tdb{db};
    load_db(tdb, 0);

    auto const expected_payload = nlohmann::json::parse(R"(
{
  "0x03601462093b5945d1676df093446790fd31b20e7b12a2e8e5e09d068109616b": {
    "balance": "838137708090664833",
    "code": "0x",
    "address": "0xa94f5374fce5edbc8e2a8697c15331677e6ebf0b",
    "nonce": "0x1",
    "storage": {}
  },
  "0x227a737497210f7cc2f464e3bfffadefa9806193ccdf873203cd91c8d3eab518": {
    "balance": "838137708091124174",
    "code":
    "0x7fffffffffffffffffffffffffffffffffffffffffffffffffffffffffffffffff7fffffffffffffffffffffffffffffffffffffffffffffffffffffffffffffffff0160005500",
    "address": "0x0000000000000000000000000000000000000100",
    "nonce": "0x0",
    "storage": {
      "0x290decd9548b62a8d60345a988386fc84ba6bc95484008f6362f93160ef3e563":
      {
        "slot": "0x0000000000000000000000000000000000000000000000000000000000000000",
        "value": "0xfffffffffffffffffffffffffffffffffffffffffffffffffffffffffffffffe"
      }
    }
  },
  "0x4599828688a5c37132b6fc04e35760b4753ce68708a7b7d4d97b940047557fdb": {
    "balance": "838137708091124174",
    "code":
    "0x60047fffffffffffffffffffffffffffffffffffffffffffffffffffffffffffffffff0160005500",
    "address": "0x0000000000000000000000000000000000000101",
    "nonce": "0x0",
    "storage": {}
  },
  "0x4c933a84259efbd4fb5d1522b5255e6118da186a2c71ec5efaa5c203067690b7": {
    "balance": "838137708091124174",
    "code":
    "0x7fffffffffffffffffffffffffffffffffffffffffffffffffffffffffffffffff60010160005500",
    "address": "0x0000000000000000000000000000000000000104",
    "nonce": "0x0",
    "storage": {}
  },
  "0x9d860e7bb7e6b09b87ab7406933ef2980c19d7d0192d8939cf6dc6908a03305f": {
    "balance": "459340",
    "code": "0x",
    "address": "0x2adc25665018aa1fe0e6bc666dac8fc2697ff9ba",
    "nonce": "0x0",
    "storage": {}
  },
  "0xa17eacbc25cda025e81db9c5c62868822c73ce097cee2a63e33a2e41268358a1": {
    "balance": "838137708091124174",
    "code":
    "0x60017fffffffffffffffffffffffffffffffffffffffffffffffffffffffffffffffff0160005500",
    "address": "0x0000000000000000000000000000000000000102",
    "nonce": "0x0",
    "storage": {}
  },
  "0xa5cc446814c4e9060f2ecb3be03085683a83230981ca8f19d35a4438f8c2d277": {
    "balance": "838137708091124174",
    "code": "0x600060000160005500",
    "address": "0x0000000000000000000000000000000000000103",
    "nonce": "0x0",
    "storage": {}
  },
  "0xf057b39b049c7df5dfa86c4b0869abe798cef059571a5a1e5bbf5168cf6c097b": {
    "balance": "838137708091124175",
    "code": "0x600060006000600060006004356101000162fffffff100",
    "address": "0xcccccccccccccccccccccccccccccccccccccccc",
    "nonce": "0x0",
    "storage": {}
  }
})");

    if (this->on_disk) {
        // also test to_json from a read only db
        mpt::Db db2{mpt::ReadOnlyOnDiskDbConfig{.dbname_paths = {dbname}}};
        auto ro_db = TrieDb{db2};
        EXPECT_EQ(expected_payload, ro_db.to_json());
    }
    EXPECT_EQ(expected_payload, tdb.to_json());
}

TYPED_TEST(DBTest, load_from_binary)
{
    std::ifstream accounts(test_resource::checkpoint_dir / "accounts");
    std::ifstream code(test_resource::checkpoint_dir / "code");
    load_from_binary(this->db, accounts, code);
    TrieDb tdb{this->db};
    EXPECT_EQ(
        tdb.state_root(),
        0xb9eda41f4a719d9f2ae332e3954de18bceeeba2248a44110878949384b184888_bytes32);
    EXPECT_EQ(
        tdb.read_code(A_CODE_HASH)->executable_code,
        A_CODE_ANALYSIS->executable_code);
    EXPECT_EQ(
        tdb.read_code(B_CODE_HASH)->executable_code,
        B_CODE_ANALYSIS->executable_code);
    EXPECT_EQ(
        tdb.read_code(C_CODE_HASH)->executable_code,
        C_CODE_ANALYSIS->executable_code);
    EXPECT_EQ(
        tdb.read_code(D_CODE_HASH)->executable_code,
        D_CODE_ANALYSIS->executable_code);
    EXPECT_EQ(
        tdb.read_code(E_CODE_HASH)->executable_code,
        E_CODE_ANALYSIS->executable_code);
    EXPECT_EQ(
        tdb.read_code(H_CODE_HASH)->executable_code,
        H_CODE_ANALYSIS->executable_code);
}

TYPED_TEST(DBTest, commit_call_frames)
{
    TrieDb tdb{this->db};

    CallFrame const call_frame1{
        .type = CallKind::CALL,
        .flags = 1, // static call
        .from = ADDR_A,
        .to = ADDR_B,
        .value = 11'111u,
        .gas = 100'000u,
        .gas_used = 21'000u,
        .input = byte_string{0xaa, 0xbb, 0xcc},
        .output = byte_string{},
        .status = EVMC_SUCCESS,
        .depth = 0,
    };

    CallFrame const call_frame2{
        .type = CallKind::DELEGATECALL,
        .flags = 0,
        .from = ADDR_B,
        .to = ADDR_A,
        .value = 0,
        .gas = 10'000u,
        .gas_used = 10'000u,
        .input = byte_string{0xaa, 0xbb, 0xcc, 0xdd, 0xee, 0x01},
        .output = byte_string{0x01, 0x02},
        .status = EVMC_REVERT,
        .depth = 1,
    };

    static byte_string const encoded_txn = byte_string{0x1a, 0x1b, 0x1c};
    TxnCallFrames const call_frame{call_frame1, call_frame2};
    BlockCallFrames call_frames;
    call_frames.emplace_back(call_frame);

    tdb.commit(StateDeltas{}, Code{}, std::vector<Receipt>{}, call_frames);

    auto const &res = tdb.read_call_frame(0);
    ASSERT_TRUE(!res.empty());
    ASSERT_TRUE(res.size() == 2);
    EXPECT_EQ(res[0], call_frame1);
    EXPECT_EQ(res[1], call_frame2);
}

// test referenced from :
// https://github.com/ethereum/tests/blob/develop/BlockchainTests/GeneralStateTests/stQuadraticComplexityTest/Call50000.json
TYPED_TEST(DBTest, call_frames_stress_test)
{
    using namespace intx;

    TrieDb tdb{this->db};

    auto const from = 0xa94f5374fce5edbc8e2a8697c15331677e6ebf0b_address;
    auto const to = 0xbbbf5374fce5edbc8e2a8697c15331677e6ebf0b_address;
    auto const ca = 0xaaaf5374fce5edbc8e2a8697c15331677e6ebf0b_address;

    tdb.commit(
        StateDeltas{
            {from,
             StateDelta{
                 .account =
                     {std::nullopt,
                      Account{
                          .balance = 0xffffffffffffffffffffffffffffffff_u128,
                          .code_hash = NULL_HASH,
                          .nonce = 0x0}}}},
            {to,
             StateDelta{
                 .account =
                     {std::nullopt,
                      Account{
                          .balance = 0x0fffffffffffff,
                          .code_hash = STRESS_TEST_CODE_HASH}}}},
            {ca,
             StateDelta{
                 .account =
                     {std::nullopt,
                      Account{.balance = 0x1b58, .code_hash = NULL_HASH}}}}},
        Code{{STRESS_TEST_CODE_HASH, STRESS_TEST_CODE_ANALYSIS}});

    // clang-format off
    byte_string const block_rlp = evmc::from_hex("0xf90283f90219a0d2472bbb9c83b0e7615b791409c2efaccd5cb7d923741bbc44783bf0d063f5b6a01dcc4de8dec75d7aab85b567b6ccd41ad312451b948a7413f0a142fd40d4934794b94f5374fce5edbc8e2a8697c15331677e6ebf0ba0644bb1009c2332d1532062fe9c28cae87169ccaab2624aa0cfb4f0a0e59ac3aaa0cc2a2a77bb0d7a07b12d7e1d13b9f5dfff4f4bc53052b126e318f8b27b7ab8f9a027408083641cf20cfde86cd87cd57bf10c741d7553352ca96118e31ab8ceb9ceb901000000000000000000000000000000000000000000000000000000000000000000000000000000000000000000000000000000000000000000000000000000000000000000000000000000000000000000000000000000000000000000000000000000000000000000000000000000000000000000000000000000000000000000000000000000000000000000000000000000000000000000000000000000000000000000000000000000000000000000000000000000000000000000000000000000000000000000000000000000000000000000000000000000000000000000000000000000000000000000000000000000000000000000000000000000000080018433428f00840ee6b2808203e800a000000000000000000000000000000000000000000000000000000000000200008800000000000000000aa056e81f171bcc55a6ff8345e692c0f86e5b48e01b996cadc001622fb5e363b421f863f861800a840ee6b28094bbbf5374fce5edbc8e2a8697c15331677e6ebf0b0a801ba0462186579a4be0ad8a63224059a11693b4c0684b9939f6c2394d1fbe045275f2a059d73f99e037295a5f8c0e656acdb5c8b9acd28ec73c320c277df61f2e2d54f9c0c0")
            .value();
    // clang-format on
    byte_string_view block_rlp_view{block_rlp};
    auto block = rlp::decode_block(block_rlp_view);
    ASSERT_TRUE(!block.has_error());

    BlockHashBuffer block_hash_buffer;
    block_hash_buffer.set(
        block.value().header.number - 1, block.value().header.parent_hash);

    BlockState bs(tdb);

    fiber::PriorityPool pool{1, 1};

    auto const results = execute_block<EVMC_SHANGHAI>(
        EthereumMainnet{}, block.value(), bs, block_hash_buffer, pool);

    ASSERT_TRUE(!results.has_error());

    bs.log_debug();

    std::vector<Receipt> receipts;
    BlockCallFrames call_frames;
    for (auto &result : results.value()) {
        receipts.emplace_back(std::move(result.receipt));
        call_frames.emplace_back(std::move(result.call_frames));
    }

    bs.commit(receipts, call_frames);

    auto const actual_call_frames = tdb.read_call_frame(0);

#ifdef ENABLE_CALL_TRACING
    // original size: 35799, after truncate, size is 100
    EXPECT_EQ(actual_call_frames.size(), 100);
#else
    EXPECT_EQ(actual_call_frames.size(), 0);
#endif
}
